S01D0000426C696E6B4C65644F6E557361727444656D616E642E73726563ED
S113000019C028C027C026C025C024C023C022C0D0
S113001021C020C01FC01EC01DC01CC0B9C11AC051
S113002019C018C04AC1CBC015C014C013C012C037
S113003011C010C011241FBECFEFD4E0DEBFCDBF6E
S113004021E0A0E0B1E001C01D92A634B207E1F7BF
S113005002D0C7C1D5CF84B1836C84B923D178943D
S1130060289AC8E2D1E0FF24F3940F2EF7E2CF2EB2
S1130070F1E0DF2EF02D809122019091230104976D
S1130080D0F32881809122019091230130E02C5FEC
S11300903F4F2817390779F7E0912201F0912301A6
S11300A0EB5DFE4FE080609122017091230161506D
S11300B086E291E057D0E812DECF809126018A30A3
S11300C0D1F6F0922601F6018081833079F028F48C
S11300D0813041F0823041F025C08A30A1F08B306C
S11300E049F020C0289A1EC028981CC085B18F25CD
S11300F085B918C085B1E9E2F1E09081937C8C73F5
S1130100892B85B90FC085B1837CE9E2F1E0808356
S1130110F88280912201909123010196909323010A
S11301208093220180912201909123018C0101503E
S1130130110980912201909123016FEF680F86E2EB
S113014091E010D0F801EA5DFE4F808360912201B6
S11301507091230186E291E07CD0109223011092E9
S1130160220189CF662359F0282FE82FF92F80E048
S11301709191890F9E2F921B9617D0F3089580E0DA
S113018008951092C50083E38093C400E0ECF0E08E
S113019080818D7F808386E08093C20088E980938C
S11301A0C10008958091C00085FF07C090910101AE
S11301B081E0992319F080E0089580E008951F926A
S11301C00F920FB60F9211242F933F938F939F9307
S11301D0EF93FF9380912401909125018097D8F4A7
S11301E0809101018823B9F0809124019091250127
S11301F09C012F5F3F4F3093250120932401FC0184
S1130200EE5FFE4F80818093C60080910101815092
S1130210809301010BC01092250110922401E1EC9E
S1130220F0E080818F7D808310920101FF91EF9136
S11302309F918F913F912F910F900FBE0F901F9020
S1130240189580930101E1ECF0E080818062808365
S113025008951F93CF93DF93EC01162FA3DF882318
S113026091F0112371F020E030E0FE01E20FF31F62
S11302709081F901EE5FFE4F90832F5F3F4F21176E
S1130280A0F3812FDEDFDF91CF911F91089584B514
S1130290826084BD87E287BDEEE6F0E08081826003
S11302A080830895F4DF6DDF089585B5856085BD8D
S11302B0089585B5887F85BD08951F920F920FB666
S11302C00F9211242F933F934F935F936F937F93D8
S11302D08F939F93AF93BF93EF93FF93409100014C
S11302E04032F0F580912201909123019C012F5F0F
S11302F03F4F30932301209322012091C600FC013B
S1130300EA5DFE4F208381E0840F809300018130F9
S113031019F416BCCADF2BC0833010F416BC27C0F6
S11303202091220130912301809128012350310929
S113033090E02817390710F416BC19C02091220147
S113034030912301809128012450310990E028172D
S1130350390710F416BC0BC0ACDF1092000107C0C3
S1130360A8DF109200011092230110922201FF9144
S1130370EF91BF91AF919F918F917F916F915F9119
S11303804F913F912F910F900FBE0F901F90189592
S11303901F920F920FB60F9211242F933F934F93F6
S11303A05F936F937F938F939F93AF93BF93EF93D9
S11303B0FF937FDF1092000110922301109222011B
S11303C0FF91EF91BF91AF919F918F917F916F9129
S11303D05F914F913F912F910F900FBE0F901F90FF
S10903E01895F894FFCF0C
S9030000FC
