:1000000019C033C032C031C030C02FC02EC02DC087
:100010002CC02BC02AC029C028C027C026C025C09C
:1000200024C023C03DC046C020C01FC01EC01DC08C
:100030001CC01BC011241FBECFEFD4E0DEBFCDBF5C
:1000400011E0A0E0B1E0ECEAF1E002C005900D9211
:10005000A031B107D9F721E0A0E1B1E001C01D92C4
:10006000A233B207E1F775D09FC0CACFE0E1F1E05B
:1000700080E391E01192E817F907E1F708951092F3
:10008000C50083E38093C400E0ECF0E080818D7FC5
:10009000808386E08093C20088E18093C100089548
:1000A0001F920F920FB60F9211240F900FBE0F9058
:1000B0001F9018951F920F920FB60F9211242F9335
:1000C0003F934F935F936F937F938F939F93AF93E0
:1000D000BF93EF93FF93E0913001F0913101E05F26
:1000E000FE4F8081882391F0809130019091310101
:1000F0009C012F5F3F4F3093310120933001FC0171
:10010000E05FFE4F80818093C6000AC0AFDF10928F
:10011000310110923001E1ECF0E080818F7D80832D
:10012000FF91EF91BF91AF919F918F917F916F91CF
:100130005F914F913F912F910F900FBE0F901F90A5
:100140001895DB01E82FF92F2D9121932111FCCF78
:1001500008958CDF209A93DF7894C0ECD0E000E122
:1001600011E00F2EF1ECEF2EF12CF02DDD24D394C5
:10017000888185FF0CC0F8018081811108C060E092
:1001800071E0C801DEDFF70180818062808385B184
:100190008D2585B9FFEF29E688E1F15020408040A8
:0C01A000E1F700C00000E4CFF894FFCFAE
:1001AC00546F206A6573742074657374200D0A0093
:00000001FF
