:1000000019C028C027C026C025C024C023C022C0D4
:1000100021C020C01FC01EC01DC01CC096C11AC078
:1000200019C018C02AC1AAC015C014C013C012C07C
:1000300011C010C011241FBECFEFD4E0DEBFCDBF72
:1000400021E0A0E0B1E001C01D92A634B207E1F7C3
:1000500002D0A4C1D5CF209A05D17894289AC8E2BD
:10006000D1E011E00F2EF7E2EF2EF1E0FF2EF02DA0
:10007000288130E02C5F3F4F809122019091230135
:100080000497D0F38091220190912301281739071A
:1000900099F7E0912201F0912301EB5DFE4F008181
:1000A0006091220170912301615086E291E039D084
:1000B000081332C0809126018A3071F51093260111
:1000C000C0902201D09023018091220190912301C0
:1000D0006FEF680F86E291E024D0F601EB5DFE4FF2
:1000E0008083609122017091230186E291E090D09B
:1000F000F7018081823031F0833031F0813039F482
:10010000289A05C0289803C085B1812785B9109227
:10011000230110922201ACCF1092230110922201F0
:10012000A7CF662359F0282FE82FF92F80E091916F
:10013000890F9E2F921B9617D0F3089580E00895A3
:100140001092C50083E38093C400E0ECF0E080816E
:100150008D7F808386E08093C20088E98093C10010
:1001600008958091C00085FF07C09091010181E052
:10017000992319F080E0089580E008951F920F926E
:100180000FB60F9211242F933F938F939F93EF936A
:10019000FF9380912401909125018097D8F480915C
:1001A00001018823B9F080912401909125019C01DF
:1001B0002F5F3F4F3093250120932401FC01EE5F18
:1001C000FE4F80818093C600809101018150809311
:1001D00001010BC01092250110922401E1ECF0E026
:1001E00080818F7D808310920101FF91EF919F911B
:1001F0008F913F912F910F900FBE0F901F901895E8
:1002000080930101E1ECF0E08081806280830895B9
:100210001F93CF93DF93EC01162FA3DF882399F070
:10022000112379F0FE01A2E0B1E09E012F5F3F4F64
:100230008FEF810F280F311D91919D93E217F307E6
:10024000D9F7812FDDDFDF91CF911F91089584B51C
:10025000826084BD87E287BDEEE6F0E08081826047
:1002600080830895F4DF6CDF089585B5856085BDD2
:10027000089585B5887F85BD08951F920F920FB6AA
:100280000F9211242F933F934F935F936F937F931C
:100290008F939F93AF93BF93EF93FF934091000190
:1002A0004032D8F580912201909123019C012F5F6B
:1002B0003F4F30932301209322012091C600FC017F
:1002C000EA5DFE4F208381E0840F8093000181303E
:1002D00019F416BCCADF28C0833010F416BC24C041
:1002E00020912201309123018091280190E0235038
:1002F00031092817390710F416BC16C020912201C5
:1003000030912301245031092817390710F416BC05
:100310000BC0AFDF1092000107C0ABDF10920001ED
:100320001092230110922201FF91EF91BF91AF91A2
:100330009F918F917F916F915F914F913F912F91FD
:100340000F900FBE0F901F9018951F920F920FB62F
:100350000F9211242F933F934F935F936F937F934B
:100360008F939F93AF93BF93EF93FF9382DF10928E
:1003700000011092230110922201FF91EF91BF9191
:10038000AF919F918F917F916F915F914F913F912D
:100390002F910F900FBE0F901F901895F894FFCFDC
:00000001FF
